:0400000051EF00F0CC
:10000800FACF01F0FBCF02F0E9CF03F0A4EF00F044
:10001800D8CF0FF0E8CF10F0E0CF11F0FACF12F000
:10002800FBCF13F0E9CF14F0EACF15F0E1CF16F0CB
:10003800E2CF17F0D9CF18F0DACF19F0F3CF1AF0D2
:10004800F4CF1BF0F6CF1CF0F7CF1DF0F8CF1EF061
:10005800F5CF1FF01FC0F5FF1EC0F8FF1DC0F7FF4A
:100068001CC0F6FF1BC0F4FF1AC0F3FF19C0DAFF6B
:1000780018C0D9FF17C0E2FF16C0E1FF15C0EAFF9C
:1000880014C0E9FF13C0FBFF12C0FAFF11C0E0FF64
:1000980010C0E8FF0FC0D8FF10000AEF01F018ECFD
:1000A80001F0FCEC00F0000E2C6E000E2B6E000E22
:1000B8002E6E000E2D6E2E50800A0B0F300ED8B407
:1000C8002D5CD8B01CD00FEC01F020C02BF021C063
:1000D8002CF00F0E2B14296E000E2C142A6E080E0D
:1000E800295C000E2A58D8B004D0550E14EC01F043
:1000F80003D0AA0E14EC01F02D4A2E2ADCD7000EEC
:10010800306E000E2F6E3050800A800F040ED8B467
:100118002F5CD8B0CCD70F0E14EC01F0000E236E74
:10012800010E226E04EC01F0F00E14EC01F0000E4A
:10013800236E010E226E04EC01F02F4A302AE3D719
:10014800EACF04F0E1CF05F0E2CF06F0D9CF07F00F
:10015800DACF08F0F3CF09F0F4CF0AF0F6CF0BF0BE
:10016800F7CF0CF0F8CF0DF0F5CF0EF0A1A202D02A
:10017800314A322AA1920EC0F5FF0DC0F8FF0CC01B
:10018800F7FF0BC0F6FF0AC0F4FF09C0F3FF08C071
:10019800DAFF07C0D9FF06C0E2FF05C0E1FF04C0CF
:1001A800EAFF03C0E9FF02C0FBFF01C0FAFF11002C
:1001B800206E2050360BB16E000EB36E000EB26E7C
:1001C800A19220AE02D0A08201D0A09220A002D09D
:1001D800B18E01D0B19EB1801200216E0D0E206E3D
:1001E800FC0EE82EFED7202EFCD7212EF7D71200C2
:1001F800CD0EDCEC00F0D08EF28CF28EA2821200D2
:100208002250640DF350F1EC00F01200326A316AAA
:10021800000153EF00F031C020F032C021F012008D
:0E022800206E20C08CFF1200000E956E12009A
:020000040020DA
:08000000FFFFFFFFFFFFFFFF00
:020000040030CA
:0E000000FF02061EFF8180FF0FC00FE00F40C1
:00000001FF
