:0400000051EF00F0CC
:10000800FACF01F0FBCF02F0E9CF03F0E8EF01F0FF
:10001800D8CF0FF0E8CF10F0E0CF11F0FACF12F000
:10002800FBCF13F0E9CF14F0EACF15F0E1CF16F0CB
:10003800E2CF17F0D9CF18F0DACF19F0F3CF1AF0D2
:10004800F4CF1BF0F6CF1CF0F7CF1DF0F8CF1EF061
:10005800F5CF1FF01FC0F5FF1EC0F8FF1DC0F7FF4A
:100068001CC0F6FF1BC0F4FF1AC0F3FF19C0DAFF6B
:1000780018C0D9FF17C0E2FF16C0E1FF15C0EAFF9C
:1000880014C0E9FF13C0FBFF12C0FAFF11C0E0FF64
:1000980010C0E8FF0FC0D8FF10002DEF03F065EC8B
:1000A80003F056EC03F004EC03F0000E3B6E000E78
:1000B800386E000E376E000E3A6E000E396E3A50EA
:1000C800800A7D0FE80ED8B4395CD8B09BD0374A87
:1000D800382A394A3A2AF3D723EC01F03C6E3C041B
:1000E800D8A402D0050E10D03C50020AD8A402D0E1
:1000F800060E0AD03C50030AD8A402D0070E04D03A
:100108003C28D8A402D0040E3B6E3C5061EC03F0AE
:10011800CED7000E236E020E226E50EC03F05CEC7C
:1001280003F020EC02F0010E2C16000E2D162D50B7
:10013800800AF36E800EF35C010ED8B42C5CD8B044
:1001480002D0060EB3D7050EB1D7000E236E010EEE
:10015800226E50EC03F05CEC03F008D0000E236E26
:10016800010E226E50EC03F05CEC03F0080E9ED7F3
:10017800FF0E61EC03F0010E236EF40E226EF3EC19
:1001880002F0000E61EC03F0010E236EF40E226EF5
:10019800F3EC02F0EDD7000E2B6EE60E2A6E000E81
:1001A8002D6EE60E2C6E90EC01F0010E7FD7000E3E
:1001B8002B6EE60E2A6EFF0E2D6E1A0E2C6E90EC2C
:1001C80001F0020E73D7FF0E2B6E1A0E2A6E000E68
:1001D8002D6EE60E2C6E90EC01F0030E67D7000E24
:1001E8002B6EE60E2A6E000E2D6EE60E2C6E90EC2F
:1001F80001F0000E236E020E226E50EC03F05CEC50
:1002080003F053D73B50000AD8B466D7010AD8B4D4
:1002180080D7030AD8B499D7010AD8B49FD7070A58
:10022800D8B4A6D7010AD8B4C2D7030AD8B4CBD752
:10023800010AD8B4B0D70F0AD8B4D1D738D7740EBA
:10024800236E000E296E000E286E000E2B6E000E17
:100258002A6E000E226E000E216E8D828D94000E85
:10026800256E000E246E2550800A7D0FE80ED8B446
:10027800245CD8B00AD084B005D0000E296E010ED7
:10028800286E03D0244A252AEED78D928D94010E2C
:1002980048EC03F08D928D84000E276E000E266EBA
:1002A8002750800A7D0FE80ED8B4265CD8B00AD053
:1002B80084B005D0000E2B6E010E2A6E03D0264A9C
:1002C800272AEED72B502A10D8A406D02950281058
:1002D800D8A402D0000E1FD02B502A10D8A406D0C4
:1002E80028042910D8A402D0010E15D02A042B10F6
:1002F800D8A406D029502810D8A402D0020E0BD0BA
:100308002A042B10D8A406D028042910D8A402D077
:10031800030E01D0FF0E12005CEC03F02DAE2BBED5
:1003280003D0898089921CD02DBE0DD02B50800A15
:10033800F36E800EF35C000ED8B42A5CD8B003D0FC
:100348008980899226D02D50800AF36E800EF35C46
:10035800000ED8B42C5CD8A02BBE05D08990898219
:100368008984899618D02D50800AF36E800EF35C2C
:10037800000ED8B42C5CD8B00ED02B50800AF36E87
:10038800800EF35C000ED8B42A5CD8B004D08990F3
:100398008982899489862CC020F02DC021F0D7EC61
:1003A80002F020C024F021C025F09DEC02F02AC004
:1003B80020F02BC021F0D7EC02F020C024F021C09F
:1003C80025F080EC02F01200EACF04F0E1CF05F04E
:1003D800E2CF06F0D9CF07F0DACF08F0F3CF09F073
:1003E800F4CF0AF0F6CF0BF0F7CF0CF0F8CF0DF002
:1003F800F5CF0EF0A1A202D0414A422AA1920EC026
:10040800F5FF0DC0F8FF0CC0F7FF0BC0F6FF0AC0E0
:10041800F4FF09C0F3FF08C0DAFF07C0D9FF06C020
:10042800E2FF05C0E1FF04C0EAFF03C0E9FF02C024
:10043800FBFF01C0FAFF1100436606D0000E216ED3
:10044800010E206E36EC03F03DC020F03EC021F0D6
:100458003FC022F040C023F06D0E246E4E0E256E74
:10046800C60E266E410E276E55EC02F020C02EF007
:1004780021C02FF022C030F023C031F0390E2E24D5
:100488003D6E300E2F203E6E000E30203F6E000E67
:100498003120406EFF0E3F142C6E7F0E40142D6EDF
:1004A8001200000E286E000E296E000E2A6E000E35
:1004B8002B6E20A008D0245028262550292226500B
:1004C8002A2227502B22D89024362536263627363E
:1004D800D89023322232213220322350201021108A
:1004E8002210D8A4E6D728C020F029C021F02AC0BD
:1004F80022F02BC023F0120024C026F025C027F0DC
:10050800060ED89026362736E82EFBD726C028F0C8
:1005180027C029F029C0BBFF28C026F0D890263272
:10052800D8902632300E2616BA50CF0B2610BA6E47
:10053800120024C026F025C027F0060ED8902636D3
:100548002736E82EFBD726C028F027C029F029C077
:10055800BEFF28C026F0D8902632D8902632300E1A
:100568002616BD50CF0B2610BD6E1200216E0C0E44
:10057800BA6E050EF66E000EF76E300EF86E0800B5
:10058800F5CF20F020A002D0226802D0000E226E03
:100598002250D8B402D0949201D09396CA9421C024
:1005A800CBFFCA8412002150800AF36E800EF35CE0
:1005B800000ED8B4205CD8B00DD020C022F021C0E5
:1005C80023F0221E231E224A232A22C020F023C001
:1005D80021F004D020C020F021C021F0120022C058
:1005E80024F023C025F0D89025322432D890253223
:1005F8002432D89025322432245022EC03F0120001
:100608000F0EC16E9290929292949296040E14ECF0
:1006180003F03F0E3FEC03F03F0EBAEC02F012007D
:10062800206E2050FB0BCA6E000ECC6E9E9220AE40
:1006380002D09D8201D09D92CA841200216E0D0EB7
:10064800206EFC0EE82EFED7202EFCD7212EF7D7E1
:10065800120000EE3DF0070EEE6AE806FDE100012B
:1006680053EF00F020C03DF021C03EF03F6A406AE1
:10067800010E436E1200206E0C0EBD129494CA94A3
:1006880020C0CBFFCA841200206EFA0E00F0E82EBC
:10069800FDD7202EFAD712002250640DF35022EC19
:1006A80003F012000A0EC16E96809692969412007C
:1006B80089908992899489961200206E20C08CFFB7
:0806C8001200000E956E1200F5
:020000040020DA
:08000000FFFFFFFFFFFFFFFF00
:020000040030CA
:0E000000FF02061EFF8180FF0FC00FE00F40C1
:00000001FF
