:0400000082EF00F09B
:10000800FACF01F0FBCF02F0E9CF03F010EF02F0D6
:10001800D8CF13F0E8CF14F0E0CF15F0FACF16F0F0
:10002800FBCF17F0E9CF18F0EACF19F0E1CF1AF0BB
:10003800E2CF1BF0D9CF1CF0DACF1DF0F3CF1EF0C2
:10004800F4CF1FF0F6CF20F0F7CF21F0F8CF22F051
:10005800F5CF23F0F2A02FD081BA81B808D0000ED6
:10006800106E000E0F6EE8EC03F0020E0AD081AAA3
:1000780081A808D0000E106E000E0F6EE8EC03F099
:10008800010E506E81AA81B813D05050020AD8A42C
:1000980006D0F1EC03F00FC04AF010C04BF050044A
:1000A800D8A406D0F1EC03F00FC04CF010C04DF00E
:1000B80081CF4EF0F29023C0F5FF22C0F8FF21C097
:1000C800F7FF20C0F6FF1FC0F4FF1EC0F3FF1DC0DE
:1000D800DAFF1CC0D9FF1BC0E2FF1AC0E1FF19C03C
:1000E800EAFF18C0E9FF17C0FBFF16C0FAFF15C0EA
:1000F800E0FF14C0E8FF13C0D8FF10006AEF03F058
:1001080009EC04F09DEC03F08DEC03F0000E3F6E5B
:10011800000E3C6E000E3B6E000E3E6E000E3D6EF5
:100128003E50800A7D0FE80ED8B43D5CD8B0F9D0B7
:100138003B4A3C2A3D4A3E2AF3D757EC03F0000ECF
:10014800276E640E266E7CEC03F04AC024F04BC088
:1001580025F0000E276E4B0E266EA8EC02F024C088
:1001680040F025C041F0405005EC04F044EC03F0A9
:10017800000E276E640E266E7CEC03F04CC024F053
:100188004DC025F0000E276E4B0E266EA8EC02F02F
:1001980024C042F025C043F0425005EC04F0140E90
:1001A800405C000E4158D8B008D0140E425C000ED6
:1001B8004358D8B002D00A0EAAD7140E405C000EDD
:1001C8004158D8A0ACD0140E425C000E4358D8A0B9
:1001D800A4D041504010D8B404D043504210D8A401
:1001E80097D7040E94D7000E276E020E266EFAECEF
:1001F80003F000EC04F048EC02F0010E3016000E9B
:1002080031163150800AF36E800EF35C010ED8B4BB
:10021800305CD8A082D083D0000E276E010E266EE7
:10022800FAEC03F000EC04F008D0000E276E010E83
:10023800266EFAEC03F000EC04F0080E68D7FF0E07
:1002480005EC04F0010E276EF40E266E7CEC03F02C
:10025800000E05EC04F0010E276EF40E266E7CEC01
:1002680003F0EDD7000E2F6EE60E2E6E000E316EE7
:10027800E60E306EB8EC01F0010E49D7000E2F6E75
:10028800E60E2E6EFF0E316E1A0E306EB8EC01F0CF
:10029800020E3DD7FF0E2F6E1A0E2E6E000E316E17
:1002A800E60E306EB8EC01F0030E31D7000E2F6E5B
:1002B800E60E2E6E000E316EE60E306EB8EC01F0D2
:1002C800000E276E020E266EFAEC03F000EC04F026
:1002D8001DD7FF0E2F6E1A0E2E6EFF0E316E1A0EE0
:1002E800306EB8EC01F0090E12D7000E276E020E20
:1002F800266EFAEC03F000EC04F048EC02F0010E74
:100308003016000E31163150800AF36E800EF35C01
:10031800010ED8B4305CD8B002D0060EF8D6050E5F
:10032800F6D63F50000AD8B408D7010AD8B45BD72C
:10033800030AD8B471D7010AD8B477D7070AD8B452
:100348007ED7010AD8B49AD7030AD8B4A3D7010A2A
:10035800D8B488D70F0AD8B4A9D7010AD8B4C5D752
:10036800030AD8B4B6D7D4D600EC04F031AE2FBE09
:1003780003D0898089921CD031BE0DD02F50800ABD
:10038800F36E800EF35C000ED8B42E5CD8B003D0A8
:100398008980899226D03150800AF36E800EF35CF2
:1003A800000ED8B4305CD8A02FBE05D089908982C1
:1003B8008984899618D03150800AF36E800EF35CD8
:1003C800000ED8B4305CD8B00ED02F50800AF36E2F
:1003D800800EF35C000ED8B42E5CD8B004D089909F
:1003E80089828994898630C024F031C025F028ECB0
:1003F80003F024C028F025C029F0EEEC02F02EC04E
:1004080024F02FC025F028EC03F024C028F025C0E4
:1004180029F0D1EC02F01200EACF04F0E1CF05F0A8
:10042800E2CF06F0D9CF07F0DACF08F0F3CF09F022
:10043800F4CF0AF0F6CF0BF0F7CF0CF0F8CF0DF0B1
:10044800F5CF0EF0A1A202D0484A492AA1920EC0C7
:10045800F5FF0DC0F8FF0CC0F7FF0BC0F6FF0AC090
:10046800F4FF09C0F3FF08C0DAFF07C0D9FF06C0D0
:10047800E2FF05C0E1FF04C0EAFF03C0E9FF02C0D4
:10048800FBFF01C0FAFF11004F6606D0000E256E73
:10049800010E246ED6EC03F044C024F045C025F0CC
:1004A80046C026F047C027F06D0E286E4E0E296E06
:1004B800C60E2A6E410E2B6E7DEC02F024C032F07F
:1004C80025C033F026C034F027C035F0390E322469
:1004D800446E300E3320456E000E3420466E000EFA
:1004E8003520476EFF0E4614306E7F0E4714316E6E
:1004F8001200000E2C6E000E2D6E000E2E6E000ED9
:100508002F6E24A008D028502C2629502D222A509E
:100518002E222B502F22D890283629362A362B36D1
:10052800D89027322632253224322750241025101D
:100538002610D8A4E6D72CC024F02DC025F02EC054
:1005480026F02FC027F01200000E296E000E286E2C
:1005580027502610D8B41CD0010E2A6E04D0D8908B
:10056800263627362A2A27AEFAD7D89028362936AB
:100578002650245C27502558D8A005D02650245E44
:100588002750255A2880D890273226322A2EEDD790
:1005980028C024F029C025F0120028C02AF029C05C
:1005A8002BF0060ED8902A362B36E82EFBD72AC019
:1005B8002CF02BC02DF02DC0BBFF2CC02AF0D890FA
:1005C8002A32D8902A32300E2A16BA50CF0B2A1067
:1005D800BA6E120028C02AF029C02BF0060ED89057
:1005E8002A362B36E82EFBD72AC02CF02BC02DF04C
:1005F8002DC0BEFF2CC02AF0D8902A32D8902A32BB
:10060800300E2A16BD50CF0B2A10BD6E1200256E73
:100618000C0EBA6E050EF66E000EF76E300EF86E02
:100628000800F5CF24F024A002D0266802D0000EDE
:10063800266E2650D8B402D0949201D09396CA94CC
:1006480025C0CBFFCA8412002550800AF36E800EA5
:10065800F35C000ED8B4245CD8B00DD024C026F0CA
:1006680025C027F0261E271E264A272A26C024F042
:1006780027C025F004D024C024F025C025F012009E
:100688008A84030EE82EFED700F0030EE82EFED76C
:1006980000F0030EE82EFED700F0030EE82EFED77A
:1006A80000F08A9412008A86030EE82EFED700F026
:1006B800030EE82EFED700F0030EE82EFED700F05A
:1006C800030EE82EFED700F08A96120000EE44F0E2
:1006D8000C0EEE6AE806FDE1180EF66E080EF76ECF
:1006E800000EF86E0900F5CF50F0000184EF00F01D
:1006F80026C028F027C029F0D89029322832D8906F
:1007080029322832D890293228322850CBEC03F0ED
:1007180012000F0EC16E9290929292949296040ECD
:10072800BDEC03F03F0EDFEC03F03F0E0BEC03F0E3
:1007380012000F0EC112939493969388938A1F0EFA
:10074800ADEC03F0D08EF190F286F18EF28CF28E41
:100758001200246E24507F0BD56E000ED76E000E4B
:10076800D66EF29424AE02D0F28A01D0F29AD58ED7
:100778001200246E2450FB0BCA6E000ECC6E9E92A3
:1007880024AE02D09D8201D09D92CA841200256EAB
:100798000D0E246EFC0EE82EFED7242EFCD7252E37
:1007A800F7D7120024C044F025C045F0466A476ACE
:1007B800010E4F6E1200246E0C0EBD129494CA9452
:1007C80024C0CBFFCA8412000FC011F010C012F071
:1007D80012C0D7FF11C0D6FF1200D6CF11F0D7CF65
:1007E80012F011C00FF012C010F012002650640D64
:1007F800F350CBEC03F01200899089928994899682
:100808001200246E24C08CFF1200000E956E120098
:020818000100DD
:020000040020DA
:08000000FFFFFFFFFFFFFFFF00
:020000040030CA
:0E000000FF02061EFF8180FF0FC00FE00F40C1
:00000001FF
