:0400000074EF0DF09C
:101AD000000E956E1200016E01C08CFF12008990FD
:101AE0008992899489961200216A206A00010EEF7A
:101AF0000FF00350640DF3509AEC0DF01200C5CFB7
:101B000001F01F0E0116D8B4C7B4F9D71200016E48
:101B10000C0EBD129494CA9401C0CBFFCA8412006B
:101B200094869488090EC86E800E016E080EB3EC80
:101B30000DF01200026E0D0E016EFC0EE82EFED7A7
:101B4000012EFCD7022EF7D71200016E0150FB0BBD
:101B5000CA6E000ECC6E9E9201AE02D09D8201D064
:101B60009D92CA841200026E3F0EC716000EC66E0A
:101B7000000EC56E0250C6120150C712948694889A
:101B8000C68A12000F0EC16E929092929294929613
:101B9000040EA5EC0DF03F0E87EC0DF03F0E02ECAD
:101BA0000EF01200C6CF01F00F0E01160150080A08
:101BB000D8B407D0C6CF01F00F0E011601500B0AA2
:101BC000D8B4C586C7A0FED7C95012000250800AFB
:101BD000F36E800EF35C000ED8B4015CD8B00DD06B
:101BE00001C003F002C004F0031E041E034A042ACD
:101BF00003C001F004C002F004D001C001F002C033
:101C000002F01200026E0C0EBA6E050EF66E000E99
:101C1000F76E300EF86E0800F5CF01F001A002D08B
:101C2000036802D0000E036E0350D8B402D0949221
:101C300001D09396CA9402C0CBFFCA84120005C09B
:101C400007F006C008F0060ED89007360836E82ED2
:101C5000FBD707C009F008C00AF00AC0BEFF09C0E0
:101C600007F0D8900732D8900732300E0716BD50D3
:101C7000CF0B0710BD6E120005C007F006C008F0BC
:101C8000060ED89007360836E82EFBD707C009F0B5
:101C900008C00AF00AC0BBFF09C007F0D89007329D
:101CA000D8900732300E0716BA50CF0B0710BA6E15
:101CB0001200000E046E7FEC0DF0C580C5B0FED79B
:101CC0007FEC0DF0C00E84EC0EF07FEC0DF0010EF9
:101CD00084EC0EF07FEC0DF0C582C5B2FED77FEC30
:101CE0000DF0C10E84EC0EF07FEC0DF0D2EC0DF097
:101CF000046EC58AC588C5B8FED77FEC0DF0C584D3
:101D0000C5B4FED704501200036E03C0C9FFC6BE9F
:101D10002CD0C6CF02F00F0E02160250080AD8B41B
:101D20000FD0C6CF02F00F0E021602500B0AD8B425
:101D300007D0C6889EA6FED7C7B417D0C75015D007
:101D4000C6CF02F00F0E02160250080AD8B408D00F
:101D5000C6CF02F00F0E021602500B0AD8A405D00F
:101D6000C7B0FED77FEC0DF0C55012006FEC0DF040
:101D70000EAE0CBE03D0898089921CD00EBE0DD051
:101D80000C50800AF36E800EF35C000ED8B40B5C2E
:101D9000D8B003D08980899226D00E50800AF36E85
:101DA000800EF35C000ED8B40D5CD8A00CBE05D03C
:101DB000899089828984899618D00E50800AF36EA2
:101DC000800EF35C000ED8B40D5CD8B00ED00C5071
:101DD000800AF36E800EF35C000ED8B40B5CD8B0B2
:101DE00004D089908982899489860DC001F00EC043
:101DF00002F0E6EC0DF001C005F002C006F01FECA9
:101E00000EF00BC001F00CC002F0E6EC0DF001C0CA
:101E100005F002C006F03CEC0EF0120068EC0DF08C
:101E2000C2EC0DF090EC0DF0100E1E6E000E1C6E4C
:101E3000000E1B6E050E1D6E59EC0EF01F6E1D5030
:101E40001EC014F0156A1426000E15221F50166EBF
:101E5000176A1750800A186E1450165C1550800AC5
:101E60001858D8B01BD01F50146E156A1D50166E2E
:101E7000176A161E171E164A172A1E50186E196A60
:101E800016501826175019221950800A1A6E14502D
:101E9000185C1550800A1A58D8A09DD01F50000811
:101EA0001E241C6E1C500008146E14041B6E1B5064
:101EB0001C5CD8B048D059EC0EF01F6E000E0C6EB2
:101EC000D20E0B6EFF0E0E6E2E0E0D6EB6EC0EF0D9
:101ED0001F506BEC0DF01D50146E156A141E151E6C
:101EE000144A152A1E50166E176A145016261550DD
:101EF00017221F50186E196A1950800A1A6E165050
:101F0000185C1750800A1A58D8A0D5D71F50146EE5
:101F1000156A1D501EC016F0176A1626000E1722ED
:101F20001750800A186E1450165C1550800A185805
:101F3000D8A0C1D76FEC0DF0000E046E010E036E39
:101F400079EC0DF058D059EC0EF01F6EFF0E0C6EB0
:101F50002E0E0B6E000E0E6ED20E0D6EB6EC0EF047
:101F60001F506BEC0DF01D50146E156A141E151EDB
:101F7000144A152A1E50166E176A1450162615504C
:101F800017221F50186E196A1950800A1A6E1650BF
:101F9000185C1750800A1A58D8A0D5D71F50146E55
:101FA000156A1D501EC016F0176A1626000E17225D
:101FB0001750800A186E1450165C1550800A185875
:101FC000D8A0C1D76FEC0DF0000E046E010E036EA9
:101FD00079EC0DF010D0000E0C6ED20E0B6E000ED0
:101FE0000E6ED20E0D6EB6EC0EF0000E046E010EEB
:101FF000036E79EC0DF059EC0EF06BEC0DF01CD784
:020000040020DA
:08000000FFFFFFFFFFFFFFFF00
:020000040030CA
:0E000000FF02061EFF8180FF0FC00FE00F40C1
:00000001FF
