:0400000082EF00F09B
:10000800FACF01F0FBCF02F0E9CF03F0E8EF06F0FA
:10001800D8CF13F0E8CF14F0E0CF15F0FACF16F0F0
:10002800FBCF17F0E9CF18F0EACF19F0E1CF1AF0BB
:10003800E2CF1BF0D9CF1CF0DACF1DF0F3CF1EF0C2
:10004800F4CF1FF0F6CF20F0F7CF21F0F8CF22F051
:10005800F5CF23F0F2A02FD081BA81B808D0000ED6
:10006800106E000E0F6E1AEC09F0020E0AD081AA6B
:1000780081A808D0000E106E000E0F6E1AEC09F061
:10008800010E5A6E81AA81B813D05A50020AD8A418
:1000980006D023EC09F00FC055F010C056F05A04F2
:1000A800D8A406D023EC09F00FC057F010C058F0C0
:1000B80081CF59F0F29023C0F5FF22C0F8FF21C08C
:1000C800F7FF20C0F6FF1FC0F4FF1EC0F3FF1DC0DE
:1000D800DAFF1CC0D9FF1BC0E2FF1AC0E1FF19C03C
:1000E800EAFF18C0E9FF17C0FBFF16C0FAFF15C0EA
:1000F800E0FF14C0E8FF13C0D8FF10008CEF08F031
:100108004BEC09F0AFEC08F007EC09F0BFEC08F095
:10011800000E4F6E640E4E6E3DEC08F052EC07F088
:1001280000018D6F000E0001926F000E00018E6FAE
:10013800020E0001906F050E00019E6F400E000137
:100148008C6F0C0E00019F6F030E0001946F200E40
:100158000001936F000E0001966FC80E0001956FA5
:10016800D90E0001A56FD20E0001A66F1E0E000168
:10017800A26F000E00018F6F030E0001916F000E39
:1001880000019D6F000E0001A16F000E0001A06F1D
:10019800010E0001986FF40E0001976F00018D5158
:1001A80000018F250001A36F40EF05F0010E47EC19
:1001B80009F0000E4F6E0A0E4E6E3DEC08F052EC40
:1001C80007F00001A46F0001A151800AF36E800EB0
:1001D800F35C020ED8B4A05DD8B00BD00001A151D9
:1001E800800AF36E7F0EF35CFF0ED8B4A05DD8B022
:1001F80003D0050E00019D6F000190510001A3C0BE
:1002080085F00001866B00018527000E862300011A
:10021800A4510001876F886B00018851800A000192
:10022800896F000185510001875D00018651800AB0
:1002380000018959D8B02BD00001A4510001856F65
:10024800866B000190510001876F886B0001871F42
:10025800881F874B882B0001A3510001896F8A6B87
:1002680000018751000189270001885100018A2374
:1002780000018A51800A00018B6F85510001895D58
:1002880000018651800A00018B59D8A002D0040EC3
:100298006DD079EC08F0000E276E640E266E9EEC89
:1002A80008F055C024F056C025F0000E276E4B0EFE
:1002B800266E7DEC07F024C099F025C09AF066EC14
:1002C80008F0000E276E640E266E9EEC08F057C0EC
:1002D80024F058C025F0000E276E4B0E266E7DECDC
:1002E80007F024C09BF025C09CF000019F5100013D
:1002F800995D000E00019A59D8B010D000019F51A5
:1003080000019B5D000E00019C59D8B007D0000188
:10031800A005A111D8B402D0030E28D000019F5126
:100328000001995D000E00019A59D8B00FD0000164
:100338009F5100019B5D000E00019C59D8B006D06A
:100348000001A029D8B4A129D8A433D000019F5115
:100358000001995D000E00019A59D8B00AD0000139
:10036800A029D8B4A129D8B404D0D6D700019D6F4C
:1003780015D700019F510001995D000E00019A599F
:10038800D8A0CAD700019F5100019B5D000E000153
:100398009C59D8B005D00001A005A111D8A409D056
:1003A80000019F5100019B5D000E00019C59D8B0CF
:1003B80002D0020EDBD7060ED9D7800E47EC09F023
:1003C8002AD0C00E47EC09F026D0E00E47EC09F021
:1003D80022D0FF0E47EC09F01ED00001A0C085F026
:1003E8000001A1C086F000018651000AD8B404D0EB
:1003F800FF0AD8B40AD0EDD700018551000AD8B455
:10040800E0D7010AD8B4E1D7E4D700018551FF0A43
:10041800D8B4D3D7DED70001A5C02EF02F6A0001CB
:10042800A6C030F0316A3CEC06F095C04EF096C09C
:100438004FF03DEC08F01ED31F0E47EC09F0000109
:10044800A5C02EF02F6A0001A6C030F0316A3CEC3E
:1004580006F093C04EF094C04FF03DEC08F042EC2B
:1004680009F008D30001A5510001856F866B0001D2
:10047800851F861F854B862B85C02EF086C02FF0E2
:100488000001A6C030F0316A3CEC06F00001A2C0C1
:100498004EF04F6A3DEC08F042EC09F052EC07F0E0
:1004A8000001A46F0001A2C04EF04F6A3DEC08F0B5
:1004B80000019E510001856F866B0001851F861F14
:1004C800854B862B0001A3510001876F886B0001C3
:1004D800855100018727000186510001882300010A
:1004E800A4510001896F8A6B00018A51800A0001BA
:1004F8008B6F87510001895D00018851800A0001D6
:100508008B59D8A0AFD70001A4510001856F866B25
:1005180000019E510001A3C087F00001886B000113
:100528008727000E882300018851800A0001896FFF
:1005380085510001875D00018651800A00018959B3
:10054800D8A090D70001A5C02EF02F6A0001A6C040
:1005580030F0316A3CEC06F0000195C085F00001EE
:1005680096C086F00001D890853786370001D8906C
:100578008537863785C04EF086C04FF03DEC08F0D1
:1005880042EC09F077D20001A5C02EF02F6A0001D5
:10059800A6510001856F866B0001851F861F854B5C
:1005A800862B85C030F086C031F03CEC06F00001A7
:1005B800A2C04EF04F6A3DEC08F042EC09F052EC54
:1005C80007F00001A46F0001A2C04EF04F6A3DEC95
:1005D80008F000019E510001856F866B0001851FA0
:1005E800861F854B862B0001A3510001876F886BFE
:1005F80000018551000187270001865100018823E9
:100608000001A4510001896F8A6B00018A51800A98
:1006180000018B6F87510001895D00018851800AB4
:1006280000018B59D8A0AFD70001A4510001856FF4
:10063800866B00019E510001A3C087F00001886B02
:1006480000018727000E882300018851800A0001D5
:10065800896F85510001875D00018651800A00017C
:100668008959D8A090D70001A5C02EF02F6A0001A3
:10067800A6C030F0316A3CEC06F0000195C085F068
:10068800000196C086F00001D890853786370001B2
:10069800D8908537863785C04EF086C04FF03DEC40
:1006A80008F042EC09F0E6D1070E47EC09F0FF0E1E
:1006B8000001A0250001A06FFF0E0001A12100018B
:1006C800A16F0001A5510001856F866B0001851F90
:1006D800861F854B862B85C02EF086C02FF0000123
:1006E800A6C030F0316A3CEC06F097C04EF098C0D6
:1006F8004FF03DEC08F00001A5C02EF02F6A000174
:10070800A6C030F0316A3CEC06F093C04EF094C0BD
:100718004FF03DEC08F00001A5C02EF02F6A000153
:10072800A6510001856F866B0001851F861F854BCA
:10073800862B85C030F086C031F03CEC06F0330ED5
:10074800336E730E346E3F0E356E97C02CF098C022
:100758002DF0A6EC07F02CC030F02DC031F02EC0E3
:1007680032F060EC05F030C03FF031C040F032C0EC
:1007780041F0D2EC05F03FC085F040C086F041C0A2
:1007880087F042C088F085C04EF086C04FF03DEC3F
:1007980008F051D00F0E47EC09F0010E0001A0251A
:1007A8000001A06F000E0001A1210001A16F00014E
:1007B800A5C02EF02F6A0001A6510001856F866B37
:1007C8000001851F861F854B862B85C030F086C0AB
:1007D80031F03CEC06F097C04EF098C04FF03DEC7D
:1007E80008F00001A5C02EF02F6A0001A6C030F065
:1007F800316A3CEC06F093C04EF094C04FF03DECEB
:1008080008F00001A5510001856F866B0001851F66
:10081800861F854B862B85C02EF086C02FF00001E1
:10082800A6C030F0316A3CEC06F097C04EF098C094
:100838004FF03DEC08F00001915100018F27010EA7
:1008480095D5AA0E47EC09F0000E276E010E266E0C
:100858003CEC09F0550E47EC09F0000E276E010E2E
:10086800266E3CEC09F0EDD71F0E47EC09F00001AD
:10087800A45100080001A3250001926F00019251C4
:1008880000080001856F0001850500018E6F0001D9
:100898008E510001925DD8B077D00001A5C02EF02E
:1008A8002F6A0001A6510001856F866B0001851F24
:1008B800861F854B862B85C030F086C031F03CEC16
:1008C80006F00001A2C04EF04F6A3DEC08F042EC81
:1008D80009F052EC07F00001A46F0001A2C04EF02D
:1008E8004F6A3DEC08F00001A2C04EF04F6A3DECA3
:1008F80008F000019E510001856F866B0001851F7D
:10090800861F854B862B0001A3510001876F886BDA
:1009180000018551000187270001865100018823C5
:100928000001A4510001896F8A6B00018A51800A75
:1009380000018B6F87510001895D00018851800A91
:1009480000018B59D8A0A9D70001A4510001856FD7
:10095800866B00019E510001A3C087F00001886BDF
:1009680000018727000E882300018851800A0001B2
:10097800896F85510001875D00018651800A000159
:100988008959D8B077D089D70001A5510001856F62
:10099800866B0001851F861F854B862B85C02EF030
:1009A80086C02FF00001A6C030F0316A3CEC06F09A
:1009B8000001A2C04EF04F6A3DEC08F042EC09F08D
:1009C80052EC07F00001A46F0001A2C04EF04F6A7C
:1009D8003DEC08F00001A2C04EF04F6A3DEC08F073
:1009E80000019E510001856F866B0001851F861FDF
:1009F800854B862B0001A3510001876F886B00018E
:100A080085510001872700018651000188230001D4
:100A1800A4510001896F8A6B00018A51800A000184
:100A28008B6F87510001895D00018851800A0001A0
:100A38008B59D8A0A9D70001A4510001856F866BF6
:100A480000019E510001A3C087F00001886B0001DE
:100A58008727000E882300018851800A0001896FCA
:100A680085510001875D00018651800A000189597E
:100A7800D8A08AD7000E7AD400019D51000AD8B4B4
:100A8800DAEF00F0010AD8B4D7D4030AD8B40CD6E8
:100A9800010AD8B47FD6070AD8B4E6D6010AD8B472
:100AA800D0D6030AD8B499D4010AD8B4DBD40F0A33
:100AB800D8B469D5D2EF00F032C036F0376A386A58
:100AC8003134363601E337803650396E396601D015
:100AD8000CD035C036F0376A386A3434363601E31C
:100AE800378036503E6E3E6607D0000E306E000EE0
:100AF800316E000E326E51D03E507B0F392632C017
:100B08003EF035503E1A800E3E16318E348EFF0E62
:100B18003316FF0E3416000E3516000E3A6E000E10
:100B28003B6E000E3C6E070E3D6E30A006D0335073
:100B38003A2634503B2235503C22D890323231325A
:100B48003032D8903336343635363D2EEED7090E4E
:100B58003D6E30A006D033503A2634503B223550F3
:100B68003C22D890323231323032D8903C323B324B
:100B78003A323D2EEED73AC024F03BC025F03CC0B7
:100B880026F039C027F03EC028F094EC06F024C0C7
:100B980030F025C031F026C032F0120041C043F0D9
:100BA800446A456A4034433601E3448043504D6EFD
:100BB8004D6601D038D0170E436E3FC044F040C098
:100BC80045F041C046F04328476E04D0D8904632DD
:100BD80045324432472EFAD74450486E408EFF0EB5
:100BE8003F16FF0E4016000E41163F50496E40500A
:100BF8004A6E41504B6E4C6A8E0E4D5E4DAE10D013
:100C08004D50800A436EF10E800A435CD8A00BD089
:100C1800D8904C324B324A3249324D3EF9D714D033
:100C2800170E4D640FD0000E3F6E000E406E000E82
:100C3800416E000E426E1BD0D89049364A364B366C
:100C48004C364D064D66F8D74850D8B408D04C1EDF
:100C58004B1E4A1E496C000E4A224B224C2249C0A8
:100C68003FF04AC040F04BC041F04CC042F0120087
:100C780042EC09F031AE2FBE03D0898089921CD096
:100C880031BE0DD02F50800AF36E800EF35C000E3B
:100C9800D8B42E5CD8B003D08980899226D0315040
:100CA800800AF36E800EF35C000ED8B4305CD8A0D6
:100CB8002FBE05D0899089828984899618D03150B1
:100CC800800AF36E800EF35C000ED8B4305CD8B0A6
:100CD8000ED02F50800AF36E800EF35C000ED8B44D
:100CE8002E5CD8B004D0899089828994898630C0D6
:100CF80024F031C025F021EC08F024C028F025C0EC
:100D080029F0E7EC07F02EC024F02FC025F021ECE5
:100D180008F024C028F025C029F0CAEC07F012001A
:100D28002750D8B405D0245025102610D8A40CD0AC
:100D3800000E246E000E256E000E266E44D0272A63
:100D4800D890263225322432000E2414296E000E43
:100D580025142A6EFE0E26142B6E29502A102B10ED
:100D6800D8B40CD0ECD7272A010E2426000E252251
:100D7800000E2622D890263225322432000E241462
:100D8800296E000E25142A6EFF0E26142B6E29508C
:100D98002A102B10D8B406D0E6D72706D8902436C8
:100DA8002536263625AEF9D727A0259ED890273296
:100DB800275026122850D8A4268E24C024F025C0F7
:100DC80025F026C026F01200EACF04F0E1CF05F0A6
:100DD800E2CF06F0D9CF07F0DACF08F0F3CF09F069
:100DE800F4CF0AF0F6CF0BF0F7CF0CF0F8CF0DF0F8
:100DF800F5CF0EF0A1A202D0534A542AA1920EC0F8
:100E0800F5FF0DC0F8FF0CC0F7FF0BC0F6FF0AC0D6
:100E1800F4FF09C0F3FF08C0DAFF07C0D9FF06C016
:100E2800E2FF05C0E1FF04C0EAFF03C0E9FF02C01A
:100E3800FBFF01C0FAFF1100266E26C0C9FFC6BE1F
:100E48002CD0C6CF25F00F0E25162550080AD8B489
:100E58000FD0C6CF25F00F0E251625500B0AD8B493
:100E680007D0C6889EA6FED7C7B417D0C75015D0DE
:100E7800C6CF25F00F0E25162550080AD8B408D07D
:100E8800C6CF25F00F0E251625500B0AD8A405D07D
:100E9800C7B0FED734EC09F0C5501200000E276E1B
:100EA80034EC09F0C580C5B0FED734EC09F0C00EAB
:100EB80020EC07F034EC09F0010E20EC07F034ECDC
:100EC80009F0C582C5B2FED734EC09F0C10E20EC9A
:100ED80007F034EC09F052EC08F0276EC58AC58893
:100EE800C5B8FED734EC09F0C584C5B4FED7275081
:100EF8001200000E296E000E286E27502610D8B456
:100F08001CD0010E2A6E04D0D890263627362A2AFD
:100F180027AEFAD7D890283629362650245C275091
:100F28002558D8A005D02650245E2750255A288059
:100F3800D890273226322A2EEDD728C024F029C08F
:100F480025F01200000E2F6E2D50800AF36E800ED1
:100F5800F35C000ED8B42C5CD8B006D02C6C2D1ED7
:100F6800D8B02D2A010E2F6E2CC024F02DC025F0EC
:100F7800266A8E0E276E2FC028F094EC06F024C047
:100F88002CF025C02DF026C02EF0120028C02AF023
:100F980029C02BF0060ED8902A362B36E82EFBD720
:100FA8002AC02CF02BC02DF02DC0BBFF2CC02AF07E
:100FB800D8902A32D8902A32300E2A16BA50CF0B3F
:100FC8002A10BA6E120028C02AF029C02BF0060E8B
:100FD800D8902A362B36E82EFBD72AC02CF02BC007
:100FE8002DF02DC0BEFF2CC02AF0D8902A32D89000
:100FF8002A32300E2A16BD50CF0B2A10BD6E1200B1
:10100800256E0C0EBA6E050EF66E000EF76E300EDB
:10101800F86E0800F5CF24F024A002D0266802D08C
:10102800000E266E2650D8B402D0949201D0939622
:10103800CA9425C0CBFFCA8412002550800AF36EDB
:10104800800EF35C000ED8B4245CD8B00DD024C058
:1010580026F025C027F0261E271E264A272A26C046
:1010680024F027C025F004D024C024F025C025F0A2
:101078001200000E526E000E516E05D0FF0E2CECC1
:1010880009F0514A522A5250800A506E4E50515C13
:101098004F50800A5058D8B01200F0D7C6CF24F06D
:1010A8000F0E24162450080AD8B407D0C6CF24F04F
:1010B8000F0E241624500B0AD8B4C586C7A0FED735
:1010C800C95012008A84030EE82EFED700F0030EE2
:1010D800E82EFED700F0030EE82EFED700F0030E30
:1010E800E82EFED700F08A9412008A86030EE82EB6
:1010F800FED700F0030EE82EFED700F0030EE82E10
:10110800FED700F0030EE82EFED700F08A961200F4
:1011180000EE53F0070EEE6AE806FDE19C0EF66E4F
:10112800120EF76E000EF86E0900F5CF5AF00001A6
:1011380084EF00F026C028F027C029F0D890293283
:101148002832D89029322832D8902932283228508B
:10115800FCEC08F012000F0EC16E929092929294DD
:101168009296040EEEEC08F03F0E11EC09F03F0EDB
:1011780004EC08F012000F0EC11293949396938812
:10118800938A1F0ECFEC08F0D08EF190F286F18E84
:10119800F28CF28E1200246E24507F0BD56E000E56
:1011A800D76E000ED66EF29424AE02D0F28A01D029
:1011B800F29AD58E1200256E3F0EC716000EC66E27
:1011C800000EC56E2550C6122450C7129486948806
:1011D800C68A1200246E2450FB0BCA6E000ECC6E19
:1011E8009E9224AE02D09D8201D09D92CA841200A4
:1011F800256E0D0E246EFC0EE82EFED7242EFCD78D
:10120800252EF7D7120094869488090EC86E800E92
:10121800246E080EDFEC08F01200246E0C0EBD12CE
:101228009494CA9424C0CBFFCA8412000FC011F052
:1012380010C012F012C0D7FF11C0D6FF1200D6CFCF
:1012480011F0D7CF12F011C00FF012C010F0120039
:10125800246E030EE82EFED700F0242EFAD71200D3
:10126800C5CF24F01F0E2416D8B4C7B4F9D712007E
:101278002650640DF350FCEC08F012008990899216
:10128800899489961200246E24C08CFF1200000EE7
:06129800956E120001003A
:020000040020DA
:08000000FFFFFFFFFFFFFFFF00
:020000040030CA
:0E000000FF02061EFF8180FF0FC00FE00F40C1
:00000001FF
